S0110000536D617274486F6D652E7372656383
S11300000C9472000C948F000C948F000C948F004D
S11300100C948F000C948F000C948F000C948F0020
S11300200C948F000C948F000C948F000C948F0010
S11300300C948F000C948F000C948F000C948F0000
S11300400C948F000C948F000C948F000C948F00F0
S11300500C948F0007061307A307FB05FB058E0707
S1130060FB05FB05FB05FB05FB05FB05FB05FB058C
S1130070FB05FB05FB05FB05FB05FB05FB05FB057C
S1130080FB05FB05FB05FB05FB05FB05FB05FB056C
S1130090FB05FB05FB05FB05FB05FB05FB05FB055C
S11300A0FB05FB05FB05FB05FB05FB05FB05FB054C
S11300B0FB05FB050D063606AF06210726074B0791
S11300C06F07FB05FB05FB05FB058A07FB05FB0525
S11300D0FB05FB05FB05FB05FB05FB0574077D071D
S11300E0FB05790711241FBECFE5D8E0DEBFCDBFE5
S11300F012E0A0E6B0E0E8E4F5E202C005900D925B
S1130100AA3EB107D9F722E0AAEEB2E001C01D92DF
S1130110AB3EB207E1F70E94C9050C94A2120C94FD
S11301200000AF92BF92CF92DF92EF92FF920F93B3
S11301301F93CF93DF938C017B0164E680E00E94E0
S11301401708B82E29E0281708F4E2C0811133C03B
S113015074C0DD2DDD0FDD0FDD0FDD190F2EF3E093
S1130160CF2EF02DC0E00DC06C2F6D0F80E00E94EB
S11301701708F801EC0FF11D9081891301C0CA948E
S1130180CF5FC33088F3C11014C0A3940E94300C15
S113019080E690E00E94380C80E690E00E943808E7
S11301A08FEF99E628E1815090402040E1F700C0AC
S11301B00000D39402C0A12CD12CDB1450F2A11066
S11301C0C2C00E94300C81E790E00E94380C81E7A5
S11301D090E00E9438088FEF99E628E18150904022
S11301E02040E1F700C00000DB2DDD0FDD0FDD0F47
S11301F0DB19C0E00AC04C2F4D0FF801EC0FF11DC4
S113020060E080810E94FD07CF5FC330A0F3C0E0AF
S11302100BC04C2F4D0F4D5FF701EC0FF11D60E04B
S113022080810E94FD07CF5FC43098F344E660E00C
S113023081E08B0D0E94FD0786C00E94300C81E78F
S113024090E00E94380C8FEF99E628E181509040AD
S11302502040E1F700C0000081E790E00E943808E8
S1130260DB2DDD0FDD0FDD0FDB19C0E00AC04C2FE5
S11302704D0FF801EC0FF11D60E080810E94FD0735
S1130280CF5FC330A0F3C0E00BC04C2F4D0F4D5FC8
S1130290F701EC0FF11D60E080810E94FD07CF5F44
S11302A0C43098F344E660E081E08B0D0E94FD07C2
S11302B00E94300C8DE790E00E94380C8DE790E0AE
S11302C00E94380860E081E00E94180C88E890E001
S11302D00E94380C88E890E00E94380864E680E0C8
S11302E00E941708682F70E080E090E00E943A0BAB
S11302F064E680E00E9417080E9435088FEF99E6B3
S113030028E1815090402040E1F700C000001BC06C
S11303100E94300C85E990E00E94380C60E081E096
S11303200E94180C81EA90E00E94380C81EB90E066
S11303300E9438088FEF99E628E1815090402040D0
S1130340E1F700C00000DF91CF911F910F91FF9062
S1130350EF90DF90CF90BF90AF900895CF92DF924F
S1130360EF92FF920F931F93CF93DF93C82E8B01CD
S11303702FEF81EE94E0215080409040E1F700C0DF
S113038000000E94300CC11057C064C0DF2DDD0F87
S1130390DD0FDD0FDF19E12CC0E00DC06C2F6D0FF8
S11303A080E00E941708F801EC0FF11D9081891379
S11303B001C0E394CF5FC33088F323E0E21212C09C
S11303C08DEC90E00E94380C8DEC90E00E9438088F
S11303D08FEF93EC29E0815090402040E1F700C07A
S11303E00000D39481E0D81225C00DC0EC2EED0E90
S11303F067E06E0D80E00E9417084E2D60E00E94B9
S1130400FD07CF5F01C0C0E0C33080F3C0E010C07F
S11304106C2F6D0F0F2EF3E0EF2EF02DE60E665FBE
S113042080E00E9417084E2D60E00E94FD07CF5F18
S1130430C43070F3F39402C0D12CF12CFC1408F4F2
S1130440A5CF91E0D91206C044E660E08FEF8C0D91
S11304500E94FD07DF91CF911F910F91FF90EF90C4
S1130460DF90CF900895EF92FF920F931F93CF9355
S1130470DF937C018B010E94300CC0E0D0E00DC002
S113048065E66C0F80E00E941708F701EC0FF11D80
S11304909081891301C0DF5FCF5FC33088F3C0E070
S11304A0F12C0DC068E66C0F80E00E941708F8017B
S11304B0EC0FF11D9081891301C0F394CF5FC43018
S11304C088F3D330B1F424E0F21213C08CED90E041
S11304D00E94380C8CED90E00E9438088FEF99E66A
S11304E028E1815090402040E1F700C00000C0E0C6
S11304F053C084E0F81215C0D33099F080E690E040
S11305000E94380C80E690E00E9438089FEF29E6AC
S113051088E1915020408040E1F700C00000C1E034
S11305203BC0D330B1F494E0F91699F08DEE90E02D
S11305300E94380C8DEE90E00E9438082FEF89E677
S113054098E1215080409040E1F700C00000C1E0F4
S113055023C0D330F1F024E0F216E9F080E690E015
S11305600E94380C60E081E00E94180C8DEE90E04F
S11305700E94380C8FEF99E628E18150904020408A
S1130580E1F700C000008EEF90E00E943808C1E05F
S113059003C0C0E001C0C0E08FEF95EA2EE08150B7
S11305A090402040E1F700C000000E94300C8FEF23
S11305B095EA2EE0815090402040E1F700C0000011
S11305C08C2FDF91CF911F910F91FF90EF900895A1
S11305D0AF92BF92CF92DF92EF92FF920F931F934D
S11305E0CF93DF937C018B0164E680E00E941708BF
S11305F0B82E811133C064C0DD2DDD0FDD0FDD0F9A
S1130600DD19C0E0C12C0DC06C2F6D0F80E00E947D
S11306101708F701EC0FF11D9081891301C0C394F1
S1130620CF5FC33088F3C0E0A12C0EC06C2F6D0FD8
S11306306D5F80E00E941708F801EC0FF11D9081B6
S1130640891301C0A394CF5FC43080F323E0C212A6
S113065003C084E0A81639F0D39401C0D12CDB1474
S113066058F2A12CC12C93E0C9120DC024E0A212AF
S11306700AC08CED90E00E94380C8CED90E00E9452
S1130680380880E039C00E94300C80E690E00E9477
S1130690380C60E081E00E94180C8BE291E00E942B
S11306A0380C8AE191E00E9438088FEF93ED20E343
S11306B0815090402040E1F700C0000081E01CC060
S11306C00E94300C87E391E00E94380C60E081E0E6
S11306D00E94180C8BE591E00E94380C89E491E0AB
S11306E00E9438088FEF93ED20E381509040204022
S11306F0E1F700C0000082E0DF91CF911F910F91DC
S1130700FF90EF90DF90CF90BF90AF9008950F933C
S11307101F93CF938C01613019F0623041F143C0D3
S11307200E94300C60E080E00E94180C85E691E0A5
S11307300E94380C60E081E00E94180CC0E00BC0FD
S11307400E945408882339F0F801EC0FF11D8083CE
S11307500E94900ACF5FC33098F32FEF80E792E0B6
S1130760215080409040E1F700C000001CC060E0D0
S113077081E00E94180CC0E00BC00E9498088823F6
S113078039F0F801EC0FF11D80830E94900ACF5FCD
S1130790C33098F32FEF85EA9EE0215080409040CB
S11307A0E1F700C00000CF911F910F9108950F93BE
S11307B01F93CF938C01613019F0623049F145C029
S11307C00E94300C60E080E00E94180C83E791E006
S11307D00E94380C60E081E00E94180CC0E00CC05C
S11307E00E945408882341F0F801EC0FF11D808326
S11307F08AE20E94900ACF5FC43090F32FEF80E723
S113080092E0215080409040E1F700C000001DC0FC
S113081060E081E00E94180CC0E00CC00E949808BF
S1130820882341F0F801EC0FF11D80838AE20E94D5
S1130830900ACF5FC43090F32FEF85EA9EE02150F9
S113084080409040E1F700C00000CF911F910F91CC
S11308500895CF93DF93EC018881811120C00E9419
S1130860300C60E080E00E94180C82E891E00E9465
S1130870380C82E891E00E94380860E070E080EF74
S113088092E40E94920C2FEF89E698E12150804077
S11308909040E1F700C0000081E088831DC00E9401
S11308A0300C60E080E00E94180C81E991E00E9425
S11308B0380C82E891E00E94380860E070E0CB01D7
S11308C00E94920C2FEF89E698E1215080409040DD
S11308D0E1F700C000001882DF91CF910895CF9313
S11308E0DF93EC018881811113C00E94300C60E019
S11308F080E00E94180C80EA91E00E94380C80EAA3
S113090091E00E9438080E947D0C81E0888313C026
S1130910813089F40E94300C60E080E00E94180C61
S11309208CEA91E00E94380C8CEA91E00E9438082D
S11309300E94820C1882DF91CF910895CF93DF93A8
S1130940EC018881811114C00E94600C8B3148F045
S113095080E00E94E80784E60E94F1070E94F40701
S113096004C0853110F40E94F70781E0888309C030
S11309700E94F70781E20E94590C80E20E94590C00
S11309801882DF91CF910895CF93DF93C0E0D0E038
S113099006C04C2F60E08FEF0E94FD072196CF3FE9
S11309A0D105B9F3B0F344E660E080E00E94FD07AE
S11309B0DF91CF91089545E660E081E30E94FD0751
S11309C046E660E082E30E94FD0747E660E083E3D9
S11309D00E94FD0748E660E081E30E94FD0749E6C6
S11309E060E082E30E94FD074AE660E083E30E9440
S11309F0FD074BE660E084E30E94FD0708950E9432
S1130A00300C89EB91E00E94380C60E081E00E9498
S1130A10180C8BED91E00E94380C2FEF87EA91E6D9
S1130A20215080409040E1F700C000000E94300C4B
S1130A308AEC91E00E943808089560E070E0CB01F0
S1130A400E94920C0E94820C0895813011F50E943C
S1130A50600C8A3148F080E00E94E80784E60E9436
S1130A60F1070E94F4070AC0853140F481E20E9434
S1130A70550C80E20E94590C0E94F7070E94300C2A
S1130A8088EE91E00E94380C88EE91E00E943808CC
S1130A9008950E94F7070E94300C82EF91E00E94B3
S1130AA0380C82EF91E00E9438080895813059F49F
S1130AB08CEF91E00E94380C8CEF91E00E94380892
S1130AC00E947D0C089581110AC086E092E00E9484
S1130AD0380C86E092E00E9438080E94820C089547
S1130AE08130D9F460E00E94180C82E891E00E9401
S1130AF0380C82E891E00E94380860E070E080EFF2
S1130B0092E40E94920C2FEF89E698E121508040F4
S1130B109040E1F700C00000089560E081E00E9489
S1130B20180C81E991E00E94380C81E991E00E945F
S1130B30380860E070E0CB010E94920C2FEF89E648
S1130B4098E1215080409040E1F700C000000895F2
S1130B50FC011082FB011082FA0110820E94F70747
S1130B600E941D050E94820C81E192E00E943808D7
S1130B7089E192E00E94380887E092E00E943808F8
S1130B8088E292E00E9438080E94C4040E94DB04B8
S1130B900895CF93DF93CDB7DEB72A970FB6F894B5
S1130BA0DEBF0FBECDBF0E94020B0E9457080E94F9
S1130BB0FA070E94DD070E945D0C0E94870C80E208
S1130BC00E94510C81E20E94510C0E94CE070E94A7
S1130BD06F0C0E94780C0E94320864E680E00E9448
S1130BE0170819821A821B821C821D821E821F8290
S1130BF0188619861A86E091EA028E2F90E08333D4
S1130C009105C8F7FC01E65DFF4F0C946E120E943B
S1130C10FF0480E38093EA02EECF0E94300C81E46B
S1130C2092E00E94380C82E592E00E94380860E06D
S1130C3081E00E94180C8BE692E00E94380C8BE64F
S1130C4092E00E9438080E9498080DC00E949808FB
S1130C50813321F491E39093EA0205C0823319F4BD
S1130C6092E39093EA02882389F3C5CF0E94300C63
S1130C708AE792E00E9438088AE792E00E94380CE2
S1130C802FEF83ED90E3215080409040E1F700C0C6
S1130C9000000E94300C60E080E00E94180C88E89C
S1130CA092E00E94380C60E081E00E94180C83E915
S1130CB092E00E94380C83E992E00E9438082FEFFA
S1130CC08BE792E9215080409040E1F700C000009A
S1130CD010E041C081EA92E00E94380861E0CE0150
S1130CE001960E94870383E791E00E94380861E03F
S1130CF0CE0104960E94D703BE016C5F7F4FCE01E4
S1130D0001960E943302811104C081E08093EA02BB
S1130D1072CF1F5F1330F9F40E94D3070E941D05A0
S1130D200E94740C0E94740C8130E1F72FEF87EE5F
S1130D3093E0215080409040E1F700C000000E9401
S1130D40740C813079F70E94740C8130E1F30E94B5
S1130D50D8071092EA02133008F4BCCF4CCF0E949B
S1130D60300C80EB92E00E94380C2FEF83ED90E37F
S1130D70215080409040E1F700C0000010E04FC0D7
S1130D800E94300C81EA92E00E94380C62E0CE01AD
S1130D9001960E9487030E94300C83E791E00E9431
S1130DA0380C62E0CE0104960E94D703BE016C5F4A
S1130DB07F4FCE0101960E94E802811104C082E0B7
S1130DC08093EA0218CF823021F480E38093EA0210
S1130DD012CF813021F51F5F133009F50E94D3072C
S1130DE00E941D050E94300C0E94740C0E94740C19
S1130DF08130E1F72FEF87EE93E02150804090405F
S1130E00E1F700C000000E94740C813079F70E9461
S1130E10740C8130E1F30E94D8071092EA02133077
S1130E2008F4AECFE8CE0E94540890E0FC01E154EF
S1130E30F109E531F10508F0DECEE35AFF4F0C94D9
S1130E406E12CE0109960E949E04D5CE0E94300CEB
S1130E508DEB92E00E94380C8DEB92E00E943808F2
S1130E602FEF8BE792E9215080409040E1F700C0DA
S1130E70000062E0CE0101960E94870362E0CE0189
S1130E8004960E94D703BE016C5F7F4FCE0101968A
S1130E900E949100B0CE64E680E00E941708182FEB
S1130EA00E94300C83E992E00E94380C83E992E0BE
S1130EB00E9438082FEF8BE792E921508040904040
S1130EC0E1F700C0000061E0CE0101960E948703B3
S1130ED0BE016F5F7F4F812F0E94AE018CCECE0189
S1130EE008960E94290487CECE010A960E946F04B8
S1130EF082CE82E38093EA027ECEAE01465F5F4FEC
S1130F00BE01685F7F4FCE0109960E94A80510922A
S1130F10EA0271CE85E08093EA026DCE0E94540805
S1130F20182F0CC00E945408182F89850E9425058B
S1130F308A850E94560588850E947005112391F3C5
S1130F401092EA0258CE0E94300C88EC92E00E9483
S1130F50380C60E081E00E94180C89ED92E00E9458
S1130F60380C0E949808182F16C00E949808182F51
S1130F70813329F4CE010A960E946F040CC0823397
S1130F8029F4CE0109960E949E0405C0833319F406
S1130F9085E08093EA02112341F32DCE61E08BE2D8
S1130FA00E94E20C089561E08BE20E946B0D0895AB
S1130FB060E08BE20E946B0D089561E08EE20E9476
S1130FC0E20C61E08CE20E94E20C0E94B50F0895ED
S1130FD061E08CE20E946B0D60E08EE20E946B0D7A
S1130FE008950E94C60F08950E94E60F08950E9476
S1130FF0ED0F08950E94C10E08951F93CF93DF93C0
S1131000683088F4142FC62FD82F0E94D00E8C2F4E
S113101080650E94E40E812F0E940D0F8D2F0E9487
S11310200D0F0E943A0FDF91CF911F910895CF9336
S1131030DF93C82FD62F0E94D00EC0658C2F0E943C
S1131040E40E8D2F0E940D0F0E942C0F8C2F0E94F6
S1131050F70E0E94250FC82F0E943A0F8C2FDF91A4
S1131060CF9108950E94F40F08950E9408100895E6
S11310700F931F93CF938C01C0E009C00E943508E1
S113108083ED90E30197F1F700C00000CF5FF80112
S1131090EC0FF11D80818111F1CF8DE00E943508A4
S11310A0CF911F910F9108950E940C10089561E053
S11310B082E20E94E20C61E083E20E94E20C61E0C1
S11310C084E20E94E20C61E085E20E94E20C61E0AD
S11310D082E20E946B0D61E083E20E946B0D61E08D
S11310E084E20E946B0D61E085E20E946B0D60E07A
S11310F08FE00E94E20C60E080E10E94E20C60E07C
S113110081E10E94E20C60E087E10E94E20C61E070
S11311108FE00E94380E61E080E10E94380E61E0A9
S113112081E10E94380E61E087E10E94380E089543
S1131130CF9360E082E20E946B0D8FE00E94F40D79
S1131140811119C02FEF86E791E021508040904033
S1131150E1F700C000008FE00E94F40D81110DC082
S11311608FE00E94F40D8823D9F361E082E20E94AB
S11311706B0DC7E303C0C0E001C0C0E080E10E9482
S1131180F40D811118C02FEF86E791E021508040C3
S11311909040E1F700C0000080E10E94F40D81114D
S11311A00AC080E10E94F40D8823D9F361E082E251
S11311B00E946B0DC8E381E10E94F40D811118C0F7
S11311C02FEF86E791E0215080409040E1F700C086
S11311D0000081E10E94F40D81110AC081E10E94A6
S11311E0F40D8823D9F361E082E20E946B0DC9E318
S11311F087E10E94F40D811118C02FEF86E791E07A
S1131200215080409040E1F700C0000087E10E9437
S1131210F40D81110AC087E10E94F40D8823D9F3EB
S113122061E082E20E946B0DCFE261E082E20E9403
S11312306B0D60E083E20E946B0D8FE00E94F40D61
S1131240811118C02FEF86E791E021508040904033
S1131250E1F700C000008FE00E94F40D81110AC084
S11312608FE00E94F40D8823D9F361E083E20E94A9
S11312706B0DC4E380E10E94F40D811118C02FEFBF
S113128086E791E0215080409040E1F700C00000E3
S113129080E10E94F40D81110AC080E10E94F40DE6
S11312A08823D9F361E083E20E946B0DC5E381E1F9
S11312B00E94F40D811118C02FEF86E791E02150B0
S11312C080409040E1F700C0000081E10E94F40DED
S11312D081110AC081E10E94F40D8823D9F361E0F1
S11312E083E20E946B0DC6E387E10E94F40D811135
S11312F018C02FEF86E791E0215080409040E1F73D
S113130000C0000087E10E94F40D81110AC087E14A
S11313100E94F40D8823D9F361E083E20E946B0DEF
S1131320CAE261E083E20E946B0D60E084E20E9405
S11313306B0D8FE00E94F40D811118C02FEF86E72A
S113134091E0215080409040E1F700C000008FE020
S11313500E94F40D81110AC08FE00E94F40D8823CD
S1131360D9F361E084E20E946B0DC1E380E10E9445
S1131370F40D811118C02FEF86E791E021508040D1
S11313809040E1F700C0000080E10E94F40D81115B
S11313900AC080E10E94F40D8823D9F361E084E25D
S11313A00E946B0DC2E381E10E94F40D811118C00B
S11313B02FEF86E791E0215080409040E1F700C094
S11313C0000081E10E94F40D81110AC081E10E94B4
S11313D0F40D8823D9F361E084E20E946B0DC3E32A
S11313E087E10E94F40D811118C02FEF86E791E088
S11313F0215080409040E1F700C0000087E10E9446
S1131400F40D81110AC087E10E94F40D8823D9F3F9
S113141061E084E20E946B0DCDE261E084E20E940F
S11314206B0D60E085E20E946B0D8FE00E94F40D6D
S1131430811118C02FEF86E791E021508040904041
S1131440E1F700C000008FE00E94F40D81110AC092
S11314508FE00E94F40D8823D9F361E085E20E94B5
S11314606B0DC3E480E10E94F40D811118C02FEFCD
S113147086E791E0215080409040E1F700C00000F1
S113148080E10E94F40D81110AC080E10E94F40DF4
S11314908823D9F361E085E20E946B0DC0E381E10A
S11314A00E94F40D811118C02FEF86E791E02150BE
S11314B080409040E1F700C0000081E10E94F40DFB
S11314C081110AC081E10E94F40D8823D9F361E0FF
S11314D085E20E946B0DCDE387E10E94F40D81113A
S11314E018C02FEF86E791E0215080409040E1F74B
S11314F000C0000087E10E94F40D81110AC087E159
S11315000E94F40D8823D9F361E085E20E946B0DFB
S1131510CBE261E085E20E946B0D8C2FCF910895A0
S1131520CF93C82F61E084E10E946B0D88B38F7064
S11315309C2F907F892B88BB61E086E10E946B0D14
S11315408FE99FE00197F1F700C0000060E086E1B9
S11315500E946B0D28B330E1C39FC0011124922F68
S11315609F70892B88BB61E086E10E946B0D8FE937
S11315709FE00197F1F700C0000060E086E10E945F
S11315806B0DCF910895CF93C82F60E084E10E9442
S11315906B0D88B38F709C2F907F892B88BB61E083
S11315A086E10E946B0D8FE99FE00197F1F700C07F
S11315B0000060E086E10E946B0D8FE19EE40197DC
S11315C0F1F700C0000028B330E1C39FC00111242B
S11315D0922F9F70892B88BB61E086E10E946B0D7E
S11315E08FE99FE00197F1F700C0000060E086E119
S11315F00E946B0D8FE19EE40197F1F700C000009B
S1131600CF91089561E088E10E94E20C61E089E1F4
S11316100E94E20C61E08AE10E94E20C61E08BE14D
S11316200E94E20C61E084E10E94E20C61E085E149
S11316300E94E20C61E086E10E94E20C2FEF83ED50
S113164090E3215080409040E1F700C0000083E324
S11316500E94C30A82E30E94C30A88E20E94C30A6A
S11316608CE00E94C30A81E00E94C30A82E00E94C7
S1131670C30A08953F924F925F926F927F928F9226
S11316809F92AF92BF92CF92DF92EF92FF920F930D
S11316901F93CF93DF9300D000D0CDB7DEB74B01BB
S11316A05C012DB73EB73A832983672B682B692BDE
S11316B019F480E30E94900AA8EEB3E0A501940116
S11316C00E94831228EE33E040E050E00E944F1263
S11316D0672B682B692B09F08EC0BB205CF48DE26C
S11316E00E94900AB094A09490948094811C911CC0
S11316F0A11CB11C181419041A041B040CF07BC09F
S1131700A5019401312C0EC0211531054105510567
S113171049F0CA01B9012AE030E040E050E00E94FB
S11317202D123394211531054105510569F78DB703
S11317309EB79C838B83832D90E0880F991F880F1D
S1131740991F2DB73EB7281B390B0FB6F8943EBF2F
S11317500FBE2DBF0DB71EB70F5F1F4F412C512C6D
S1131760320120C03FEF431A530A630A730AC418B4
S1131770D508E608F708C501B4012AE030E040E0E6
S113178050E00E944F12CC0CDD1CCC0CDD1CF80187
S1131790EC0DFD1D6083718382839383822E932ECF
S11317A0A42EB52EC32CD12CE12CF12C4C145D04A9
S11317B06E047F04B8F2812C912C540110C0F40102
S11317C0EE0FFF1FEE0FFF1FE00FF11F8081805D02
S11317D00E94900A8FEF881A980AA80AB80A8C14F3
S11317E09D04AE04BF0458F32B813C810FB6F894DA
S11317F03EBF0FBE2DBF89819A810FB6F8949EBF5C
S11318000FBE8DBF0F900F900F900F90DF91CF916F
S11318101F910F91FF90EF90DF90CF90BF90AF900A
S11318209F908F907F906F905F904F903F9008951E
S1131830CF93DF9300D0CDB7DEB790E8998390ECD7
S11318409A83E1E0F0E0EC0FFD1FE80FF11D8081C9
S1131850860F0E94C30A0F900F90DF91CF910895D5
S113186081E00E94C30A60E080E00E94180C0895A1
S11318700F931F93CF938C01C0E009C00E94900A7C
S1131880CF5FC03121F460E081E00E94180CF801C0
S1131890EC0FF11D80818111F1CFCF911F910F9138
S11318A0089561E00E94E20C089561E00E946B0DCE
S11318B0089560E00E946B0D08950E94A90C08959C
S11318C00E94D50C9C01A4EFB1E00E9474122FEF8A
S11318D033E040E050E00E942D12C901089560E019
S11318E08AE20E94E20C08958AE20E94F40D0895AF
S11318F061E08EE00E94E20C089561E08EE00E94B7
S11319006B0D089560E08EE00E946B0D089561E018
S11319108DE20E94E20C0E94470F82E390E00E9455
S1131920820F089520E030E040EA50E40E94AC11B8
S113193020E030E044E353E40E947D1020E030E0F6
S113194040EA50E40E9411100E945D0F0E94970F1C
S1131950089560E08BE00E94E20C87B1806487B94F
S113196087B18F7787B987B18F7D87B987B18F7E2C
S113197087B987B1877F87B987B18B7F87B987B1EB
S11319808D7F87B987B18E7F87B986B1846086B928
S113199086B1826086B986B1816086B986B1806875
S11319A086B986B1806286B9089586B1806486B9A5
S11319B0349BFECF24B185B190E0982F8827820F05
S11319C0911D08959DEC899F912D1124292F269511
S11319D026952695220F322F330F330F230F821BA8
S11319E0282F969596959695662319F06130E1F126
S11319F008959230A9F018F4913031F0089593309D
S1131A00D9F0943029F108953AB381E090E002C00E
S1131A10880F991F2A95E2F7809583238ABB08953E
S1131A2037B381E090E002C0880F991F2A95E2F74E
S1131A308095832387BB089534B381E090E002C08E
S1131A40880F991F2A95E2F78095832384BB089514
S1131A5031B381E090E002C0880F991F2A95E2F724
S1131A608095832381BB08959230A1F018F49130BE
S1131A7031F008959330C9F0943011F108953AB3D8
S1131A8081E090E002C0880F991F2A95E2F7832B2A
S1131A908ABB089537B381E090E002C0880F991F94
S1131AA02A95E2F7832B87BB089534B381E090E055
S1131AB002C0880F991F2A95E2F7832B84BB0895EF
S1131AC031B381E090E002C0880F991F2A95E2F7B4
S1131AD0832B81BB08959DEC899F912D1124292F7F
S1131AE0269526952695220F322F330F330F230F79
S1131AF0821B282F969596959695662319F061304A
S1131B00E1F108959230A9F018F4913031F008957C
S1131B109330D9F0943029F108953BB381E090E0FB
S1131B2002C0880F991F2A95E2F7809583238BBB07
S1131B30089538B381E090E002C0880F991F2A9578
S1131B40E2F78095832388BB089535B381E090E064
S1131B5002C0880F991F2A95E2F78095832385BBDD
S1131B60089532B381E090E002C0880F991F2A954E
S1131B70E2F78095832382BB08959230A1F018F494
S1131B80913031F008959330C9F0943011F10895F3
S1131B903BB381E090E002C0880F991F2A95E2F7D9
S1131BA0832B8BBB089538B381E090E002C0880F8B
S1131BB0991F2A95E2F7832B88BB089535B381E0FA
S1131BC090E002C0880F991F2A95E2F7832B85BB0A
S1131BD0089532B381E090E002C0880F991F2A95DE
S1131BE0E2F7832B82BB08959DEC899F912D1124EC
S1131BF0292F269526952695220F322F330F330F42
S1131C00230F821B282F892F8695869586958230EF
S1131C1091F018F4813031F029C08330A9F0843078
S1131C20E1F024C089B390E002C0959587952A9588
S1131C30E2F78170089586B390E002C09595879588
S1131C402A95E2F78170089583B390E002C09595D8
S1131C5087952A95E2F78170089580B390E002C0D9
S1131C60959587952A95E2F78170089580E0089507
S1131C709DEC899F912D1124292F26952695269533
S1131C80220F322F330F330F230F821B282F9695E9
S1131C9096959695662319F06130E1F10895923096
S1131CA0A9F018F4913031F008959330D9F09430BC
S1131CB029F108953BB381E090E002C0880F991F99
S1131CC02A95E2F7809583238BBB089538B381E08E
S1131CD090E002C0880F991F2A95E2F7809583232C
S1131CE088BB089535B381E090E002C0880F991F46
S1131CF02A95E2F78095832385BB089532B381E06A
S1131D0090E002C0880F991F2A95E2F780958323FB
S1131D1082BB08959230A1F018F4913031F0089507
S1131D209330C9F0943011F108953BB381E090E011
S1131D3002C0880F991F2A95E2F7832B8BBB089565
S1131D4038B381E090E002C0880F991F2A95E2F72A
S1131D50832B88BB089535B381E090E002C0880FDF
S1131D60991F2A95E2F7832B85BB089532B381E04E
S1131D7090E002C0880F991F2A95E2F7832B82BB5B
S1131D80089586B78B7F86BF8CE080B986B7846060
S1131D9086BF8FE39CE90197F1F700C00000089526
S1131DA086B7806286BF86B7806886BF06B607FEA0
S1131DB0FDCF81B1887F8830E1F78FE39CE90197FB
S1131DC0F1F700C000000895880F83B986B78068D2
S1131DD086BF06B607FEFDCF81B1887F8831E1F763
S1131DE08FE39CE90197F1F700C00000089590E0AB
S1131DF0880F991F816083B986B7806886BF06B64D
S1131E0007FEFDCF81B1887F8034E1F78FE39CE941
S1131E100197F1F700C00000089583B986B78F7D5C
S1131E2086BF86B7806886BF06B607FEFDCF81B140
S1131E30887F8832E1F72FEF81EE94E021508040D3
S1131E409040E1F700C00000089584E886BF06B61C
S1131E5007FEFDCF83B1089586B7806286BF86B73B
S1131E60806886BF06B607FEFDCF81B1887F8031CA
S1131E70E1F7089586B7806186BF86B7806886BF1C
S1131E808FE99FE00197F1F700C00000089581B346
S1131E90806281BB8FB580688FBD8FB58F7B8FBD0E
S1131EA08EB580618EBD8EB588608EBD8FB5826023
S1131EB08FBD8FB58E7F8FBD0895CF92DF92EF9245
S1131EC0FF926B017C0166B577B580E090E00E94DB
S1131ED01E11A70196010E94AC1120E030E048ECED
S1131EE052E40E947D1020E030E040E85FE30E946D
S1131EF010100E94EF107BBD6ABDFF90EF90DF9041
S1131F00CF90089500249695879507949695879584
S1131F100794982F802D9C0140E050E060E074E22B
S1131F2084EF90E00E944F1237BD26BD08958EB510
S1131F308B7F8EBD8EB582608EBD8EB581608EBD69
S1131F40089585B5846085BD85B5826085BD85B5F8
S1131F50816085BD089585B58B7F85BD85B58D7FF1
S1131F6085BD85B58E7F85BD089561E08FE20E94B1
S1131F70E20C85B5886085BD85B5806485BD85B571
S1131F80806285BD85B58F7E85BD089581110FC0A2
S1131F9095B5906295BD95B5906195BD982F80E0FB
S1131FA064E670E00E941912609563BD089595B5CA
S1131FB0906295BD95B59F7E95BD982F80E064E6AF
S1131FC070E00E941912615063BD08950E94A10F30
S1131FD061E08FE20E94E20C08950E94AB0F60E082
S1131FE08FE20E94E20C089581B38E7F81BB81B39E
S1131FF0826081BB8AB18B7F8AB987E689B986EA18
S113200080BD8AB188608AB98AB180618AB908952D
S11320108CB95E9BFECF08955F9BFECF8CB1089573
S11320205058BB27AA270E9428100C9472110E94B2
S1132030641138F00E946B1120F039F49F3F19F4B9
S113204026F40C9461110EF4E095E7FB0C945B11FB
S1132050E92F0E94831158F3BA17620773078407A4
S1132060950720F079F4A6F50C94A5110EF4E095EB
S11320700B2EBA2FA02D0B01B90190010C01CA013E
S1132080A0011124FF27591B99F0593F50F4503EE9
S113209068F11A16F040A22F232F342F4427585FDB
S11320A0F3CF469537952795A795F0405395C9F7F3
S11320B07EF41F16BA0B620B730B840BBAF09150AB
S11320C0A1F0FF0FBB1F661F771F881FC2F70EC04A
S11320D0BA0F621F731F841F48F48795779567951D
S11320E0B795F7959E3F08F0B0CF9395880F08F009
S11320F09927EE0F9795879508950E9491100C9457
S113210072110E946B1158F00E94641140F029F47E
S11321105F3F29F00C945B1151110C94A6110C949F
S113212061110E94831168F39923B1F3552391F34C
S1132130951B550BBB27AA2762177307840738F032
S11321409F5F5F4F220F331F441FAA1FA9F335D08F
S11321500E2E3AF0E0E832D091505040E695001C43
S1132160CAF72BD0FE2F29D0660F771F881FBB1FFD
S1132170261737074807AB07B0E809F0BB0B802DDB
S1132180BF01FF2793585F4F3AF09E3F510578F007
S11321900C945B110C94A6115F3FE4F3983ED4F3C6
S11321A0869577956795B795F7959F5FC9F7880FDB
S11321B0911D9695879597F90895E1E0660F771F2D
S11321C0881FBB1F621773078407BA0720F0621BBE
S11321D0730B840BBA0BEE1F88F7E09508950E94E9
S11321E08B1188F09F5798F0B92F9927B751B0F009
S11321F0E1F0660F771F881F991F1AF0BA95C9F787
S113220014C0B13091F00E94A511B1E008950C946E
S1132210A511672F782F8827B85F39F0B93FCCF321
S1132220869577956795B395D9F73EF49095809503
S1132230709561957F4F8F4F9F4F0895E89409C023
S113224097FB3EF490958095709561957F4F8F4FE5
S11322509F4F9923A9F0F92F96E9BB279395F695FB
S1132260879577956795B795F111F8CFFAF4BB0F79
S113227011F460FF1BC06F5F7F4F8F4F9F4F16C0DD
S1132280882311F096E911C0772321F09EE8872F67
S1132290762F05C0662371F096E8862F70E060E023
S11322A02AF09A95660F771F881FDAF7880F96959C
S11322B0879597F9089597F99F6780E870E060E043
S11322C008959FEF80EC089500240A9416161706CB
S11322D018060906089500240A9412161306140613
S11322E005060895092E0394000C11F4882352F076
S11322F0BB0F40F4BF2B11F460FF04C06F5F7F4F2E
S11323008F4F9F4F089557FD9058440F551F59F014
S11323105F3F71F04795880F97FB991F61F09F3FCE
S113232079F087950895121613061406551FF2CFF7
S11323304695F1DF08C0161617061806991FF1CF47
S113234086957105610508940895E894BB2766276E
S11323507727CB0197F908950E94BF110C9472114D
S11323600E94641138F00E946B1120F0952311F043
S11323700C945B110C94611111240C94A6110E940D
S1132380831170F3959FC1F3950F50E0551F629F21
S1132390F001729FBB27F00DB11D639FAA27F00DBA
S11323A0B11DAA1F649F6627B00DA11D661F829FE1
S11323B02227B00DA11D621F739FB00DA11D621FC6
S11323C0839FA00D611D221F749F3327A00D611DE3
S11323D0231F849F600D211D822F762F6A2F1124C5
S11323E09F5750409AF0F1F088234AF0EE0FFF1FF8
S11323F0BB1F661F771F881F91505040A9F79E3F4F
S1132400510580F00C945B110C94A6115F3FE4F32A
S1132410983ED4F3869577956795B795F795E795A4
S11324209F5FC1F7FE2B880F911D9695879597F9AD
S1132430089597FB072E16F4009407D077FD09D072
S11324400E948E1207FC05D03EF4909581959F4F13
S11324500895709561957F4F0895A1E21A2EAA1BE5
S1132460BB1BFD010DC0AA1FBB1FEE1FFF1FA21740
S1132470B307E407F50720F0A21BB30BE40BF50B3D
S1132480661F771F881F991F1A9469F760957095C6
S1132490809590959B01AC01BD01CF010895052E57
S11324A097FB1EF400940E94661257FD07D00E9409
S11324B02D1207FC03D04EF40C94661250954095EF
S11324C0309521953F4F4F4F5F4F089590958095DC
S11324D0709561957F4F8F4F9F4F0895EE0FFF1FAB
S11324E00590F491E02D0994A29FB001B39FC0011F
S11324F0A39F700D811D1124911DB29F700D811D2C
S11325001124911D08950E947412A59F900DB49FEB
S1132510900DA49F800D911D11240895AA1BBB1B2F
S113252051E107C0AA1FBB1FA617B70710F0A61BCF
S1132530B70B881F991F5A95A9F780959095BC01F0
S10B2540CD010895F894FFCFCA
S1132548496E76616C696420557365726E616D6558
S11325580056616C696420456E7472790055736520
S113256872204164646564004E6F206F6620557361
S1132578657273200052656163686564206D6178D3
S1132588004E756D626572204F66205573657273CF
S11325980052656163686564206D6178206E756DAD
S11325A8626572204F662055736572730056616CBC
S11325B8696420557365726E616D65004C6F676957
S11325C86E205375636365737366756C00496E7624
S11325D8616C69642050617373776F726400496E2B
S11325E876616C696420557365726E616D65202629
S11325F82050617373776F726400496E76616C69F9
S11326086420557365726E616D65204F7220506148
S11326187373776F726400546865726520697320F8
S11326286E6F2075736572730054686572652069EE
S113263873206E6F207573657273206164646564BA
S11326482079657400456E7465722055736572202F
S1132658494400456E7465722050617373776F72D4
S11326686400446F6F72204973204F70656E65640F
S113267800446F6F7220497320436C6F7365640064
S11326884C414D5053204973204F4E004C414D50FE
S113269853204973204F46460057656C636F6D6538
S11326A820746F20536D6172740057656C636F6D8D
S11326B86520746F20536D61727420486F6D6520B6
S11326C850726F6A656374004143204F70656E658C
S11326D86400414320436C6F736564002052656C49
S11326E86179204F6E002052656C6179204F6666CF
S11326F800412F43204F666600446F6F7220697350
S113270820636C6F73656400526573657474696ED5
S11327186720207468652073797374656D2E2E2E76
S1132728002020202057656C636F6D6520202020D1
S1132738200043686F6F7365207573657220757325
S1132748696E67204B657970616400313A41646D44
S1132758696E20323A557365720057656C636F6D04
S1132768652041646D696E0041646D696E204D6F2A
S113277864650055736520426C7565746F6F746881
S113278800456E74657220557365726E616D6500DF
S113279857656C636F6D6520557365720055736575
S11327A8204B65795061640020313A53776974632A
S11327B8682052656C61792000323A416353776925
S10D27C87463682020333A4F4B007D
S9030000FC
